:020000040800F2
:1000000048450020810200081B1B00083519000824
:10001000191B0008B1030008E120000800000000DF
:10002000000000000000000000000000C101000806
:1000300055040008000000001D0200081D1B0008F8
:100040009B0200089B0200089B0200089B0200081C
:100050009B0200089B0200089B0200089B0200080C
:100060009B0200089B0200089B0200089B020008FC
:100070009B0200089B0200089B0200089B020008EC
:100080009B0200089B0200089B0200089B020008DC
:10009000B50300089B0200089B0200089B020008B1
:1000A0009B0200089B0200089B0200089B020008BC
:1000B000251C00089B0200089B0200089B02000808
:1000C0009B0200089B0200089B0200089B0200089C
:1000D0009B020008D52000089B0200089B02000834
:1000E0009B0200089B0200089B0200089B0200087C
:1000F0009B0200089B0200089B0200089B0200086C
:100100009B0200089B0200089B0200089B0200085B
:100110009B0200089B0200089B0200089B0200084B
:100120009B0200089B020008CD0300089B02000808
:100130009B0200089B0200089B0200089B0200082B
:100140009B020008C10300089B0200089B020008F4
:100150009B0200089B0200089B0200089B0200080B
:100160009B0200089B0200089B0200089B020008FB
:100170009B0200089B0200089B0200080000000090
:100180009B0200089B0200089B0200089B020008DB
:100190009B0200089B0200089B0200089B020008CB
:1001A00000000000000000009B020008DFF80CD0F7
:1001B00000F0ECF8004800472121000848450020E5
:1001C0002C4B19680868B0E8F04F80F30988BFF33A
:1001D0006F8F4FF0000080F311887047000000001F
:1001E00008480068006880F308884FF0000080F33A
:1001F000148862B661B6BFF34F8FBFF36F8F00DF15
:1002000000BF00BF08ED00E0DFF80C00016841F41A
:1002100070010160704700BF88ED00E0EFF30980D6
:10022000BFF36F8F134B1A681EF0100F08BF20ED3D
:10023000108A20E9F04F106009B44FF0500080F3AD
:100240001188BFF34F8FBFF36F8F02F007FB4FF0A2
:10025000000080F3118809BC19680868B0E8F04F05
:100260001EF0100F08BFB0EC108A80F30988BFF3AE
:100270006F8F704718000020EFF305807047000073
:100280000648804706480047FEE7FEE7FEE7FEE730
:10029000FEE7FEE7FEE7FEE7FEE7FEE7D11B00080C
:1002A000AD0100082DE9F05F0546002092469B460F
:1002B00088460646814640241BE02846414647467C
:1002C000224600F053F853465A46C01A914110D3C3
:1002D00011461846224600F03AF82D1A67EB01083D
:1002E0004F4622460120002100F031F817EB0009AB
:1002F0004E41201EA4F10104DFDC484631462A4667
:100300004346BDE8F09F40EA01039B0703D009E0A4
:1003100008C9121F08C0042AFAD203E011F8013BF1
:1003200000F8013B521EF9D27047D2B201E000F84A
:10033000012B491EFBD270470022F6E710B5134689
:100340000A4604461946FFF7F0FF204610BD202A52
:1003500004DB203A00FA02F1002070479140C2F11C
:10036000200320FA03F3194390407047202A04DB4E
:10037000203A21FA02F00021704721FA02F3D0401E
:10038000C2F120029140084319467047064C074DC0
:1003900006E0E06840F0010394E807009847103455
:1003A000AC42F6D3FFF706FF302C0008502C0008B3
:1003B000FEE70000014800F050B80000780000207F
:1003C000014800F04AB80000A0000020014800F0F9
:1003D0006FBA0000F403002001681823CAB2103A73
:1003E000B2FBF3F2054B6FF30901032A9B5CC36573
:1003F00000D9091D8165084670470000042C0008DB
:1004000010B5014600208B698A6A4FF0C07453B161
:10041000B3F5005F15D072B1012A0CD0022A0AD0C0
:10042000032A09D104E01AB1012A06D0022A03D115
:10043000C96AC90100D5012010BDC96AA142FAD01C
:1004400010BD002AF7D0012AF2D0022AF3D0032AE5
:10045000F3D010BD7047704770472DE9F05F054637
:10046000006800244669D0F804908768D0F80CB082
:10047000D0F810A0D0F81880F10748D0F90714D0B0
:1004800001218160B80703D5284600F0F9F90CE096
:10049000780702D54FF4006407E0380702D54FF41F
:1004A000805402E0284600F0EAF9F80516D52968DC
:1004B0004FF480708860B80503D5284600F0E2F953
:1004C0000CE0780502D544F4005407E0380502D565
:1004D00044F4804402E0284600F0D3F9F80316D52E
:1004E00029684FF480308860B80303D5284600F0AF
:1004F000CBF90CE0780302D544F4004407E038035C
:1005000002D544F4803402E0284600F0BCF93007FC
:1005100007D55FEACB6004D52968102044F4007445
:10052000C86070074FF0080707D55FEA0B7004D565
:100530002868C760284600F09DF9B00706D52868EE
:10054000C068800702D0284600F095F9700607D5EC
:100550005FEACA6004D52968102044F48064086109
:10056000B00607D55FEA0A7004D5286807612846F7
:1005700000F082F9F00606D528680069800702D0ED
:10058000284600F07AF9B00308D55FEAC96005D5BE
:10059000296810204860284600F070F9F00307D55C
:1005A0005FEA097004D528684760284600F06DF9B5
:1005B000300446D55FEA497040D5F00504D55FEABE
:1005C000C87001D044F00104B00504D55FEA88701A
:1005D00001D544F00204700504D55FEA487001D5E6
:1005E00044F00404300529D518F0700F26D008F027
:1005F0007000402815D006DC102809D020280AD029
:10060000302816D10AE050280ED0602811D10EE013
:1006100044F008040DE044F010040AE044F0200423
:1006200007E044F0400404E044F0800401E044F4B6
:1006300080742868816921F0700181612968042033
:100640004860002C05D0686A204368622846FFF79E
:1006500003FFBDE8F09F70B5040003D094F82000BC
:1006600010B104E0012070BD204600F081F8206840
:10067000016821F00201016000F040FB05460526FB
:1006800004E000F03BFB401B0A2811D820684068BA
:100690008007F6D42068016841F00101016000F094
:1006A0002DFB05460BE000F029FB401B0A2806D96C
:1006B000606A40F40030606284F82060D2E720680D
:1006C0004068C007EFD0207E0128206801683DD037
:1006D00021F080010160607E01282068016838D027
:1006E00021F040010160A07E01282068016833D01C
:1006F00021F020010160E07E0128206801682ED0F1
:1007000041F010010160207F01282068016829D094
:1007100021F008010160607F01282068016824D071
:1007200021F004010160D4E902010843D4E9041274
:10073000114308436168491E08432168C8610020CD
:100740006062012084F82000002070BD41F080012B
:10075000C0E741F04001C5E741F02001CAE721F0C0
:100760001001CFE741F00801D4E741F00401D9E7D7
:100770002DE9F04387B0044614216846FFF7DCFDFD
:10078000384B3948DFF8D8801968D4F800C0364AA9
:10079000022503260927DFF8D49010300024491CD5
:1007A000C44524D11960012907D1016841F00071C5
:1007B0000160006800F000700590106840F00200D1
:1007C0001060106802AB00F0020005904FF440701A
:1007D000CDE9000583E8D0006946484600F0A2F95B
:1007E00000220521142000F015FB142032E0DFF870
:1007F0008080C44530D1D0F800C04CF0806CC0F887
:1008000000C0D0F800C001290CF0806CCDF814C0F5
:10081000196007D1016841F000710160006800F0C3
:1008200000700590106840F002001060106802AB84
:1008300000F0020005906020CDE9000583E8D000BB
:100840006946484600F06EF900220521412000F07B
:10085000E1FA412000F0D0FA07B0BDE8F0830000D3
:1008600000640040000000203038024000040240D4
:100870000068004070477047704770477047704786
:1008800070477047704770477047704790F8351051
:10089000022903D08021416501207047052180F89D
:1008A00035100068016821F00101016000207047E7
:1008B0002DE9F84304464FF00009CDF80090634855
:1008C0004FF41651A56D0068B0FBF1F72E6894F84F
:1008D0005C10082000FA01F131420FD021680A684B
:1008E00052070BD50A6822F004020A6094F85C10E3
:1008F0008840A860606D40F00100606594F85C106D
:100900004FF0010808FA01F0304208D02168496927
:10091000090604D5A860606D40F00200606594F897
:100920005C1004208840304208D02168096889079B
:1009300004D5A860606D40F00400606594F85C1018
:1009400010208840304218D021680968090714D562
:10095000A86020680168490304D50068000308D531
:10096000A16C07E00168C90503D4016821F0080102
:100970000160216C09B12046884794F85C10202062
:100980008840304231D021680968C9062DD5A86059
:1009900094F8350005282068016806D0490347D53A
:1009A000006800031DD4616C1CE021F01601016099
:1009B0002068416921F080014161206C08B9A06C78
:1009C00020B12068016821F00801016094F85C10F2
:1009D0003F208840A86084F8349084F83580216DE9
:1009E0001FE0E16B09B120468847606D00282BD0DD
:1009F000606DC00714D0052084F8350020680168B8
:100A000021F0010101600098401C0090B84203D819
:100A100020680068C007F6D184F8349084F83580E7
:100A2000E16C002910D001B02046BDE8F043084732
:100A30000168C905D5D4016821F01001016084F86E
:100A4000349084F83580CCE7BDE8F88314000020AA
:100A50002DE9F041044600F051F906465CB100254D
:100A600084F83450022084F835002068016821F0B1
:100A7000010101600DE00120BDE8F08100F03EF9C8
:100A8000801B052805D920206065032084F83500E7
:100A9000F2E720680068C007F0D12268116820489A
:100AA0000140D4E901031843D4E903363343184322
:100AB00063691843A3691843E3691843236A184319
:100AC0000843616A042903D1D4E90B13194308438D
:100AD000106020684069666A20F0070130460E43C6
:100AE000012704280CD1A06A0643E06A40B12046E1
:100AF000FFF786FC20B14020606584F83570BAE7C6
:100B0000206846612046FFF767FC94F85C203F218F
:100B100091408160656584F835700020ACE7000085
:100B20003F8010F02DE9F84FDFF890B100224FF030
:100B300001084FF0030A4FF00F090BF1040E00BF3C
:100B40000B6808FA02F42340A3426ED14D68022DCF
:100B500001D0122D0ED1D50800EB850CDCF8205009
:100B60005607F70E09FA07F6B5430E69BE402E4345
:100B7000CCF82060066855000F790AFA05FC07F0EA
:100B8000030726EA0C06AF40374307604E68012E84
:100B900005D0022E03D0112E01D0122E0ED187685F
:100BA000CE6827EA0C07AE403E4386604668A643FF
:100BB0000C79C4F30014944034434460C4688E68D4
:100BC00024EA0C04AE402643C6604C68E4006FD5AE
:100BD0003B4C256845F480452560246822F00305D8
:100BE00004F480440094374C2E19D6F80848950731
:100BF0002F0F09FA07F5AC43334DA84201D1002568
:100C00002EE0324DA84201D1012529E0304DA84205
:100C100001D1022524E02F4DA84201D103251FE078
:100C20002D4DA84202D104251AE041E02B4DA842E7
:100C300001D1052514E02A4DA84201D106250FE077
:100C4000284DA84201D107250AE0274DA84201D12D
:100C5000082505E0254DA84201D1092500E00A2517
:100C6000BD402543C6F80858DBF800405D464E6895
:100C70009C43F60300D51C432C60DEF8004075460B
:100C80004E689C43B60300D51C432C600B4D0835C1
:100C90002C684E689C43F60200D51C432C60074D1F
:100CA0000C352C684E689C43B60200D51C432C6062
:100CB000521C102AFFF444AFBDE8F88F003C0140FD
:100CC000443802400030014000000240000402406D
:100CD00000080240000C02400010024000140240D4
:100CE00000180240001C0240002002400024024084
:100CF0000AB1816170470904FBE700000148806880
:100D00007047000008000020024881680278114402
:100D100081607047080000200B4810B5016841F45D
:100D200000710160016841F480610160016841F473
:100D300080710160032000F08DF8002000F006F8BB
:100D400000F03EF8002010BD003C024010B5014606
:100D500088B000221C2000F05DF81C2000F04CF848
:100D600014480024016841F001010160006805A9F0
:100D700000F001000690684600F04EF900F06CF9B2
:100D80000D494000B0FBF1F10C484FF08042491E84
:100D9000026040F2E732C0E90324C0E9011400F028
:100DA000B3FB10B1012008B010BD044800F0C8FB2F
:100DB000F9E700004038024040420F007403002071
:100DC0000C4882B0016841F480410160006800F481
:100DD000804000900748001F016841F08051016089
:100DE0000068002200F0805000900F21901E02B099
:100DF00000F010B844380240002809DB00F01F0260
:100E0000012191404009800000F1E020C0F800116C
:100E100070470000F0B40E4B1B680C46C3F302236E
:100E2000C3F10705042D00D90425191D072901D296
:100E3000002300E0DB1E012606FA05F1491E2140D1
:100E400099409E40761E16403143F0BC01F049B9EE
:100E50000CED00E0064900F0070208684FF6FF03BA
:100E6000184040EA0220034A10430860704700001F
:100E70000CED00E00000FA052DE9F8431748016881
:100E800041F0805101600068154F00F0805001264C
:100E900000903E64FFF732FF05464FF47A78114C1C
:100EA00005E000BFFFF72AFF401B40450DD86068F2
:100EB000C003F7D57E64FFF721FF0546464607E0ED
:100EC000FFF71CFF401BB04202D90320BDE8F883A6
:100ED00060688003F4D50020F8E700004038024045
:100EE00000000E42007000402DE9F0470E4605005C
:100EF00065D0DFF81481D8F80000F7B200F00F00D9
:100F0000B04207D288F80070D8F8000000F00F0057
:100F1000B04254D128683D4C810712D5400703D513
:100F2000206840F4E05020602878000703D520684E
:100F300040F4604020602068A96820F0F000084379
:100F400020602878C0072DD030496868083901280A
:100F500012D0022813D0032811D00968890700296C
:100F60002DDA216821F0030101432160FFF7C6FE5D
:100F7000814641F2883A0EE009688903EFE7096883
:100F80008901ECE7FFF7BAFEA0EB0901514502D950
:100F90000320BDE8F0872068696800F00C00B0EB22
:100FA000810FEFD1D8F80010404601F00F01B14297
:100FB00007D90770006800F00F00B04201D001208F
:100FC000E7E72878400705D52068E96820F4E05075
:100FD000084320602878000706D52068296920F496
:100FE000604040EAC100206000F056F82168084ADD
:100FF000C1F30311515CC840064908600020FFF7A7
:10100000A5FE0020C5E70000003C02400838024071
:101010000C2C0008140000200F2202600C4A1368F8
:1010200003F003034360136803F0F0038360136865
:1010300003F4E053C36012684FF4E05303EAD202B2
:1010400002610448006800F00F000860704700006B
:1010500008380240003C024004480549006809681D
:10106000044AC1F38221515CC8407047140000203B
:10107000083802401C2C000804480549006809682B
:10108000044AC1F34231515CC8407047140000204B
:10109000083802401C2C0008154810B5006810F0F4
:1010A0000C02144813D01449042A0FD0082A0ED178
:1010B0000F4C241F2268236802F03F025B0207D511
:1010C0002068C0F38810A0FB010106E0084610BDAF
:1010D0002168C1F38811A1FB00010023FFF7E2F8AA
:1010E0002168C1F30141491C4900B0FBF1F010BD7A
:1010F000083802400024F400001BB7002DE9F84F27
:10110000050076D02878DFF8F8B2BE4CC00749D089
:10111000DBF800105846C1F38101012908D00068AE
:10112000C0F3810002280AD1201D0068400206D5C4
:101130002068800336D568680028E2D032E068680D
:10114000B0F5803F10D0B0F5A02F206810D020F46B
:1011500080302060206820F4802020606868A0B182
:10116000FFF7CCFD06460CE0206840F48030F4E741
:1011700040F480202060F7E7FFF7C0FD801B642863
:1011800073D820688003F7D50CE0FFF7B7FD06465B
:1011900005E000BFFFF7B2FD801B6428F0D820688F
:1011A0008003F7D42878DFF8608280074FF00009C9
:1011B0003ED5DBF80010584611F00C0F09D000683E
:1011C000C0F3810002280BD18D48001F0068400247
:1011D00006D42068800715D5E868012809D111E0F8
:1011E000E868B8B10120C8F80000FFF787FD06469F
:1011F00005E002E1FFF782FD801B0228C0D82068CD
:101200008007F7D52068296920F0F80040EAC1007E
:1012100020600DE0C8F80090FFF770FD064604E07E
:10122000FFF76CFD801B02281FD820688007F7D4C9
:101230002878000722D5724E744869696C3671B1FE
:1012400001210160FFF75AFD074604E0FFF756FD54
:10125000C01B022809D830688007F7D50EE0C0F817
:101260000090FFF74BFD074605E083E0FFF746FDE2
:10127000C01B02287ED830688007F7D42878400742
:1012800068D5DFF87CA100270AF1380ADAF80000F7
:10129000C0000BD4DAF8001041F08051CAF80010F9
:1012A000DAF80000012700F080500090584E3068B6
:1012B000C00510D4306840F480703060FFF71EFD28
:1012C000009005E0FFF71AFD0099401A022851D856
:1012D0003068C005F6D54A4EA868683601280FD098
:1012E0000528306810D020F001003060306820F010
:1012F00004003060A868B8B1FFF700FD00900FE06F
:10130000306840F00100F4E740F004003060F7E797
:10131000FFF7F4FC0099411A41F28830814264D809
:1013200030688007F4D50EE0FFF7E8FC009007E096
:10133000FFF7E4FC0099411A41F28830814254D809
:1013400030688007F4D42FB1DAF8001021F0805112
:10135000CAF80010A869C0B3DBF80010C1F381011E
:1013600002294AD00228484607D0C8F86000FFF793
:10137000C5FC00E039E005463AE04746C8F86000A1
:10138000FFF7BCFC064604E0FFF7B8FC801B022810
:101390002BD820688001F7D4D5E907010843A96A52
:1013A0001C4A490802EB01416A6A41EA821108437A
:1013B00095F82C1040EA01611148001F01600120DE
:1013C0003866FFF79BFC054605E014E0FFF796FC46
:1013D000401B022809D820688001F7D50BE000BF28
:1013E000FFF78CFC401B022802D90320BDE8F88FD0
:1013F00020688001F4D40020F8E70120F6E700001F
:10140000083802400038024000004742800E474240
:10141000007000400000FFFF70B5040005D00025FB
:10142000A56294F8510010B106E0012070BD84F867
:101430005050204600F030F8022084F85100206817
:10144000016821F040010160D4E901010843D4E9B9
:1014500003121143084361690843218B01F40071B1
:101460000843E1690843216A0843A16A08432168E7
:101470000860A069042101EA1040616A08432168FC
:1014800048602068C16921F40061C161656501207F
:1014900084F85100002070BD10B586B004461421B8
:1014A0006846FEF749FF14492068884221D1134855
:1014B0000021026842F480120260006800F480108B
:1014C00005900E481438026842F02002026000685D
:1014D00000F0200005904FF4607000900220CDE9EC
:1014E0000101032003900520049069460448FFF79A
:1014F00019FB06B010BD0000005001404438024006
:10150000001402407047704710B5040003D094F8EF
:101510003D0010B107E0012010BD002084F83C0020
:10152000204600F00CF8022084F83D00211D2068C0
:1015300000F07EFB012084F83D00002010BD7047C4
:101540000168CA6842F00102CA600068816801F05F
:101550000701062903D0016841F001010160002064
:101560007047704770B50446006801694FF0000588
:10157000C943890715D4C168C943890711D4E91E35
:10158000016101202077206880698007204602D011
:10159000FFF7E7FF04E000F098F8204600F096F827
:1015A000257720680169C943490717D4C168C94331
:1015B000490713D46FF004010161022020772068ED
:1015C000806910F4407F204602D0FFF7CAFF04E094
:1015D00000F07BF8204600F079F825772068016953
:1015E000C943090716D4C168C943090712D46FF06B
:1015F00008010161042020772068C0698007204627
:1016000002D0FFF7AEFF04E000F05FF8204600F0E4
:101610005DF8257720680169C943C90617D4C168F8
:10162000C943C90613D46FF0100101610820207767
:101630002068C06910F4407F204602D0FFF791FF78
:1016400004E000F042F8204600F040F825772068DA
:101650000169C943C90708D1C168C943C90704D191
:10166000891E0161204600F032F820680169C943F3
:10167000090609D4C168C943090605D46FF0800181
:1016800001612046FFF73EFF20680169C943490612
:1016900009D4C168C943490605D46FF0400101610E
:1016A000204600F01BF820680169C94389060BD465
:1016B000C168C943890607D46FF020010161204643
:1016C000BDE87040FFF71FBF70BD704770470068EE
:1016D000B0F1804F01D1FFF717BB704770477047DB
:1016E00070B5026804461068D168536910F00F0F96
:1016F00050D003F0010501F4907635435DD0C20768
:1017000005D0CA0503D5E26B42F00102E26342074D
:1017100005D5DA0703D0E26B42F00202E2638207EA
:1017200005D5DA0703D0E26B42F00402E263020758
:1017300005D5DA0703D0E26B42F00802E263E26B00
:10174000002A33D0800604D5880602D5204600F052
:10175000EDFA20684069E16BC0F38010090700D4FE
:1017600028B3204600F0D4FA2068416949061AD50A
:10177000416921F040014161606BA0B11B490165E5
:10178000606BFFF783F8002810D0606B016DBDE837
:1017900070400847830610D58B060ED52046BDE85D
:1017A000704000F0C3BA2046FFF799FF70BD204695
:1017B000FFF795FF0020E06370BD030606D50B061A
:1017C00004D52046BDE8704000F052BC4006F3D579
:1017D0004806F1D5D168204621F04001D160202192
:1017E00084F8391000F0A5F870BD0000011D000854
:1017F00070B5040004D094F83900002510B106E05B
:10180000012070BD84F83850204600F023F82420D1
:1018100084F839002068C16821F40051C160204675
:1018200000F0D0FA2068016921F49041016120683C
:10183000416921F02A0141612068C16841F40051E9
:10184000C160E563202084F8390084F83A00002064
:1018500070BD00002DE9F04387B0064614216846AC
:10186000FEF76AFD2C493068884252D12B4800258A
:10187000016841F0100101600068284900F0100083
:1018800014390590086840F002000860086800F00C
:1018900002000590086840F00100086008684FF0F9
:1018A000070800F0010005908020022401274FF076
:1018B0000309CDF810808DE8910269461848FFF7BA
:1018C00031F92002CDF810808DE891026946154863
:1018D000FFF728F9154C14482060F806C4E9010503
:1018E0004014C4E9035080106561C4E906502562C4
:1018F00020466562FFF7ACF808B1FEF7ACFD7463F3
:10190000002205212520A663FFF784FA2520FFF792
:1019100073FA07B0BDE8F08300100140443802407C
:10192000000402400000024040640240F403002032
:1019300070477047FEE700000F4810B50D49016081
:101940000521416000214FF480228160C0E903122B
:10195000D20042610176012242768276C276017718
:101960004177FEF778FE002803D0BDE81040FEF76F
:1019700072BD10BD00640040780000200F4810B513
:101980000D4901600521416000214FF480228160F2
:10199000C0E90312D20042610176012242768276CA
:1019A000C27601774177FEF756FE002803D0BDE8E6
:1019B0001040FEF750BD10BD00680040A0000020A0
:1019C000094808B5016841F48001016000680022FF
:1019D00000F48000009005213A20FFF71BFABDE8D3
:1019E00008403A20FFF708BA3038024000B587B007
:1019F0001C2206496846FEF786FC0021684600F076
:101A0000B6FB0349086007B000BD0000E82B0008E2
:101A10000400002030B587B014216846FEF78CFC26
:101A20001A480024016841F002010160016801F0D8
:101A300002010591016841F001010160016801F0B6
:101A400001010591016841F080010160016801F028
:101A500080010591016841F02001016000680C4D92
:101A600000F020000590012240212846FFF740F9B0
:101A7000402000900120CDE9010402200390694636
:101A80002846FFF74FF807B030BD0000303802405D
:101A900000140240104810B50E4901604FF48271E5
:101AA000416000218160C1604FF400720161C0E9B2
:101AB00005122822C0E90721416281620A21C16220
:101AC000FFF7AAFC002803D0BDE81040FEF7C3BC16
:101AD00010BD0000005001401C0300200C4810B550
:101AE0000A4901600B494160002181600422C16004
:101AF000C0E904128161C161FFF77AFE002803D0BA
:101B0000BDE81040FEF7A7BC10BD0000001001406A
:101B1000B4030020A0860100FEE7704710B55020F6
:101B200080F31188BFF34F8FBFF36F8F00F096FFE4
:101B300018B104494FF080500860002080F31188EC
:101B400010BD000004ED00E030B593B030216846D0
:101B5000FEF7F2FB14210CA8FEF7EEFB1A48002555
:101B6000016841F080510160006800F080501190E0
:101B70001648016841F4404101600068022400F405
:101B8000404011900120039010200490009406948E
:101B90000820CDE90750B420CDE9090404200B90BA
:101BA0006846FFF7ABFAFFF767F90CA90F2081E849
:101BB00031004FF4A0500F90E002109005210CA8C6
:101BC000FFF792F913B030BD40380240007000407A
:101BD0001048016841F4700101600F48016841F04C
:101BE000010101600C4A00210832116002680B4BB0
:101BF0001A400260031D0A4A1A60026822F4802219
:101C0000026005480C3001600249580680390860BE
:101C10007047000088ED00E000380240FFFFF6FE4C
:101C2000103000240148FFF79DBC00007403002021
:101C3000F0B50268254C264D264E274F274B4FF016
:101C4000804CA04209D0604507D0A84205D0B042E0
:101C500003D0B84201D0984204D122F0700E4A68F5
:101C600042EA0E02A0421BD0604519D0A84217D00C
:101C7000B04215D0B84213D0984211D0184DA842A6
:101C80000ED0184DA8420BD0174DA84208D0174DC2
:101C9000A84205D0164DA84202D0164DA84203D145
:101CA00022F44075CA682A434D6922F080022A4313
:101CB00002608A68C2620A688262A04201D09842C9
:101CC00001D10969016301214161F0BD00000140BA
:101CD0000004004000080040000C004000040140E7
:101CE000004001400044014000480140001800400D
:101CF000001C004000200040012000F02CFAFBE70F
:101D000010B5806B0021C185C184FFF7E8FC10BDD0
:101D10000168CA6822F49072CA6001684A6922F0B8
:101D200001024A61202180F83A10704710B590F8FE
:101D30003A10222901D0022010BD8168B1F5805FE0
:101D400011D00169002901681FD0496801F07F03A3
:101D5000816A4A1C82620B70C18D491E0904090CFC
:101D6000C18518D02BE00269816A002A0268526896
:101D700005D0D2B20A80816A491C8162ECE7C2F3C5
:101D800008020A80816A891CF7E74A68816A4B1C4D
:101D900083620A70E0E70168CA6822F02002CA6024
:101DA0000168CA6822F48072CA6001684A6922F038
:101DB00001024A61202180F83A10FFF7B9FD0020A6
:101DC00010BD00002DE9F041044600680169E26899
:101DD00021F44051114301612169A068E26908437F
:101DE0006169114322680843D16849F20C63994341
:101DF0000143D16020684169A26921F44071114317
:101E00004161E2696425B2F5004F9748974922681D
:101E10004FF032083FD08A4201D082427CD1FFF796
:101E20002BF900EBC00101EB001061688900B0FBE9
:101E3000F1F6FFF721F900EBC00101EB001061683A
:101E40008900B0FBF1F0B0FBF5F06FF018014843EA
:101E500006EB800108EB0110B0FBF5F000F0F00696
:101E6000FFF70AF900EBC00101EB0010616889007F
:101E7000B0FBF1F0B0FBF5F006EB0016FFF7FCF855
:101E800000EBC00101EB001061688900B0FBF1F7C5
:101E9000FFF7F2F8D2E08A4201D082423DD1FFF74B
:101EA000EBF800EBC00101EB001061684900B0FBEA
:101EB000F1F0B0FBF5F00601FFF7DEF800EBC00132
:101EC00001EB001061684900B0FBF1F7FFF7D4F8AF
:101ED00000EBC00101EB001061684900B0FBF1F0BC
:101EE000B0FBF5F06FF01801484307EB800108EBF9
:101EF000C100B0FBF5F000F0F80006EB4006FFF77C
:101F0000BBF800EBC00101EB001061684900B0FBB9
:101F1000F1F7FFF7B1F83CE055E0FFF79DF800EB73
:101F2000C00101EB001061684900B0FBF1F0B0FBAB
:101F3000F5F00601FFF790F800EBC00101EB00108F
:101F400061684900B0FBF1F7FFF786F800EBC001CC
:101F500001EB001061684900B0FBF1F0B0FBF5F057
:101F60006FF01801484307EB800108EBC100B0FB9C
:101F7000F5F000F0F80006EB4006FFF76DF800EB17
:101F8000C00101EB001061684900B0FBF1F7FFF7F9
:101F900063F800EBC00101EB001061684900B0FB81
:101FA000F1F0B0FBF5F06FF01801484307EB80014A
:101FB00008EBC100B0FBF5F000F0070021683044E9
:101FC0008860BDE8F081FFF747F800EBC00101EB46
:101FD000001061688900B0FBF1F6FFF73DF800EBF7
:101FE000C00101EB001061688900B0FBF1F0B0FBAB
:101FF000F5F06FF01801484306EB800108EB011083
:10200000B0FBF5F000F0F006FFF726F800EBC0019A
:1020100001EB001061688900B0FBF1F0B0FBF5F056
:1020200006EB0016FFF718F800EBC00101EB0010FB
:1020300061688900B0FBF1F7FFF70EF800EBC00113
:1020400001EB001061688900B0FBF1F0B0FBF5F026
:102050006FF01801484307EB800108EB0110B0FB5B
:10206000F5F000F00F00A9E7001401400010014056
:1020700090F83910212901D0022070478168B1F50C
:10208000805F016A0BD04A1C0262026809785160C5
:10209000C18C491E0904090CC1840ED017E00988BF
:1020A0000268C1F30801516001690029016A02D088
:1020B000491C0162ECE7891CFBE70168CA6822F051
:1020C0008002CA600068C16841F04001C160002020
:1020D000704700000148FFF703BB0000B403002075
:1020E000FEE70907090E002804DB00F1E02080F874
:1020F0000014704700F00F0000F1E02080F8141D7C
:10210000704702E008C8121F08C1002AFAD17047C0
:102110007047002001E001C1121F002AFBD1704767
:10212000FEF7FAFDFFF710FDFFF774FCFFF704FC64
:10213000FFF724FCFFF744FCFFF7ACFCFFF7CEFCF5
:10214000FFF754FC00F00EF8FEE70146002084295A
:1021500000D0C81C704710B500B9012000F01AFB70
:10216000002010BD10B500F03BFB002010BD7FB576
:102170000D4604464169B0F9080081B1A16971B109
:10218000FFF7E3FFD4E905128DE80700D4E900105A
:102190002B46226900F037FC039004B070BDFFF7B6
:1021A000D4FF03A9CDE90001208A2B4682B2D4E9ED
:1021B000001000F0FBFB012801D00020EDE70398A0
:1021C000EBE700002DE9F041184C0F460546666923
:1021D0002068001D00F01AFA38B9206890F82C1019
:1021E00001208840A1698143A161681C07D137B1F2
:1021F0002168BDE8F0410E48091D00F04BBA206887
:102200003544B5424560216805D2A068BDE8F0417B
:10221000091D00F027BA6068091D00F023FA206B41
:10222000854200D22563BDE8F0810000180000203F
:10223000300500202DE9F041054600F037FA2E4C1C
:102240002069401C206120682C4F10B1E06940B328
:102250002DE025602069012829D1002606EB8600A3
:1022600007EB800000F0F0F9761C072EF6D3234828
:102270008C3000F0E9F92148A03000F0E5F91F4862
:10228000B43000F0E1F91D48C83000F0DDF91B481A
:10229000DC3000F0D9F919488C3060601430A0604F
:1022A00005E02068E96AC06A884200D82560E06AD3
:1022B000401CE062E96A0120A26988401043A061E5
:1022C00001EB810007EB8000291D00F0E3F900F02D
:1022D0000DFAE06900280CD02068E96AC06A8842DB
:1022E00007D207494FF080500860BFF34F8FBFF30C
:1022F0006F8FBDE8F081000018000020540400201A
:1023000004ED00E010B5044690F8510058B10128E2
:102310000CD002280FD0502080F31188BFF34F8FCC
:10232000BFF36F8FFEE7206B00F0F4F92046BDE8A5
:10233000104000F0EFB910BD10484FF47051420743
:1023400006D0C01D0D4920F00700411AC1F570519B
:102350000B4A00230144C2E900030839103A21F076
:10236000070111604B600B600B1AC0E9001393600A
:102370004FF000405360D0607047000044050020DB
:1023800064000020144E154CA6F1C8074FF0805889
:10239000DFF84C9012E000BF00F088F9F068C568E3
:1023A000281D00F033F92069401E2061E068401EBE
:1023B000E06000F09BF92846FFF7A4FFE0680028E2
:1023C000EAD138680128F9D9C9F80080BFF34F8FE6
:1023D000BFF36F8FF2E700001C05002018000020FB
:1023E00004ED00E02DE9F0479A46DDE909848146D5
:1023F0006FF00303206B03EB82021044089D20F072
:102400000706700707D0502080F31188BFF34F8F65
:10241000BFF36F8FFEE723180A5C83F834200A5C51
:1024200012B1401C1028F6D3002784F84370072D02
:1024300000D30625E562C4E91157201D00F00FF90D
:1024400004F1180000F00BF92461C5F10700646283
:10245000A061E76484F8507052464946304600F067
:10246000BFF82060B8F1000F01D0C8F80040BDE807
:10247000F087000030B5114900E011460A68824239
:10248000FBD34B685C18844203D140681844486011
:10249000084643681C18944209D1084C103C246833
:1024A000A24209D052681A4442600A681268026067
:1024B000814200D0086030BD0460F9E7640000206C
:1024C00006484168096829B14168C968C96849680E
:1024D000016370474FF0FF31FAE700001800002059
:1024E00008484068401C4FF0500080F3118804D029
:1024F000BFF34F8FBFF36F8FFEE7BFF34F8FBFF375
:102500006F8FFEE76C0000202DE9F04105460027A3
:1025100000F09CF9314E306808B9FFF70DFFF06804
:1025200005424BD1C5B3083568070ED005F007004A
:10253000C0F108000544680707D0502080F31188D7
:10254000BFF34F8FBFF36F8FFEE72DB370688542E7
:1025500034D82248103001460C6801E020460C4671
:102560006168A94202D221680029F7D131688C4202
:1025700024D007682168016060680837411B102972
:102580000FD96019420708D0502080F31188BFF39B
:102590004F8FBFF36F8FFEE710E041606560FFF77C
:1025A00069FF61687068401A7060B268904200D23A
:1025B000B060F06801430020C4E9000100F0B2FA05
:1025C000780707D0502080F31188BFF34F8FBFF3F7
:1025D0006F8FFEE73846BDE8F08100005400002010
:1025E00010B5031F4FF080741C601B1F21F0010108
:1025F0001960191F044B0B6014390A60091F6FF032
:10260000020244380A6010BDE1240008D0E901321A
:1026100001699A60D0E901235A604A68824201D177
:1026200082684A60002202610868401E08600868EB
:1026300070470000034B036003F1540008608020E2
:1026400010607047C800002000F108014FF0FF3211
:10265000C0E90112C16001610021016070470021E1
:102660000161704730B50B685A1C02D000F10802B6
:1026700002E0026904E02246546825689D42FAD9C6
:1026800053684B6099608A60516008610168491C19
:10269000016030BD42684A6093688B6093685960FE
:1026A000916008610168491C01607047502080F307
:1026B0001188BFF34F8FBFF36F8F0A494868401CE2
:1026C000486001280CD10848006810F0FF0F07D0BF
:1026D000502080F31188BFF34F8FBFF36F8FFEE759
:1026E000704700006C00002004ED00E008494868D5
:1026F00028B1401E486001D180F3118870475020F6
:1027000080F31188BFF34F8FBFF36F8FFEE7000098
:102710006C00002070B5002827D0144DA0F10804EB
:102720006168E868014207D1502080F31188BFF347
:102730004F8FBFF36F8FFEE722683AB1502080F3CE
:102740001188BFF34F8FBFF36F8FFEE78143616046
:1027500000F07CF860686968084468602046FFF70C
:1027600089FEBDE8704000F0DDB970BD5400002066
:102770004FF0E02000210161816105494FF47A7238
:102780000968B1FBF2F1491E4161072101617047FF
:102790001400002010B5020014D00F48806B38B12F
:1027A000502080F31188BFF34F8FBFF36F8FFEE788
:1027B00000F04CF800211046FFF704FD00F0B2F9DC
:1027C000002807D105494FF080500860BFF34F8FB4
:1027D000BFF36F8F10BD00001800002004ED00E073
:1027E00010B586B00024039405AA04A903A8049494
:1027F000FFF720FFDDE903010094CDE9011000237C
:102800000EA11048059A00F0FEF80F490028486311
:1028100011D0502080F31188BFF34F8FBFF36F8F1B
:102820004FF0FF3008630120C8614C6106B0BDE87D
:10283000104000F041B806B010BD000049444C45BE
:102840000000000085230008180000200248816B6A
:10285000491C816370470000180000201448816BF8
:1028600011B1012141627047002141628169B1FAD1
:1028700081F1C1F11F0101EB81020E4951F82230B3
:102880006BB101EB820101F108034A6852684A60AA
:102890009A4201D152684A60D16801607047502065
:1028A00080F31188BFF34F8FBFF36F8FFEE70000F7
:1028B00018000020540400201CB537480168374A2E
:1028C000914207D1502080F31188BFF34F8FBFF39F
:1028D0006F8FFEE700683149491E884207D15020BA
:1028E00080F31188BFF34F8FBFF36F8FFEE72C4942
:1028F00008780190FF20087008788DF800009DF896
:1029000000009DF8002000F0F000904207D0502019
:1029100080F31188BFF34F8FBFF36F8FFEE79DF8F1
:102920000000204B00F0500018700720986005E070
:102930009DF8002052008DF80020401E9DF80020D8
:102940001206F5D49860032807D0502080F3118830
:10295000BFF34F8FBFF36F8FFEE74FF44070986067
:10296000019808700C482030016841F47001016042
:10297000016841F070410160FFF7FAFE00205860E5
:10298000FDF742FC0848016841F040410160FDF755
:1029900027FC00201CBD000000ED00E071C20F41CB
:1029A00000E400E06C00002034EF00E02DE9FF5F60
:1029B0008346DDE90E87994616468A469000FFF762
:1029C000A3FD05001CD05420FFF79EFD040014D089
:1029D0000020256384F85100CDE90240CDE900874D
:1029E0004B46324651465846FFF7FCFC2046FFF75F
:1029F00021FC012004B0BDE8F09F2846FFF78AFEC5
:102A00004FF0FF30F6E7F0B585B0DDE90B640A9DC5
:102A1000A6B1DCB1542700972663022684F85160E2
:102A2000002604AFCDE90246CDE90057FFF7DAFCF6
:102A30002046FFF7FFFB049805B0F0BD502080F35F
:102A40001188BFF34F8FBFF36F8FFEE7502080F3E5
:102A50001188BFF34F8FBFF36F8FFEE72DE9F04171
:102A60002E4C0027A06B40B1206A401C2062606A97
:102A700000B101273846BDE8F0816669761C6661C1
:102A800013D16068006838B1502080F31188BFF31B
:102A90004F8FBFF36F8FFEE76068A1686160A06031
:102AA000A06A401CA062FFF70BFD206BDFF870806E
:102AB000864209D36068006880B16068C068C568F4
:102AC000686886420DD220632068C06A00EB8001EE
:102AD00058F821000128CAD90127C8E74FF0FF3074
:102AE000F1E7281DFFF792FDA86A18B105F118005B
:102AF000FFF78CFDE86A0121A26981401143A161C1
:102B000000EB800108EB8100291DFFF7C3FDE86A97
:102B10002168C96A8842CDD30127CBE7180000207D
:102B2000540400202DE9F0472C4D00242746A86BC3
:102B300038B1FFF7BBFDA86B401EA863A86B40B17E
:102B400046E0502080F31188BFF34F8FBFF36F8FA3
:102B5000FEE72969224E0120D1B3A6F1B4098046CF
:102B60003068E8B1F068C46804F11800FFF74EFD62
:102B7000201DFFF74BFDE06AAA6908FA00F1114336
:102B8000A96100EB800109EB8100211DFFF782FDA7
:102B9000E06A2968C96A8842E2D3C5F82480DFE781
:102BA0000CB1FFF78DFC2C6A44B14646FFF756FF87
:102BB00000B16E62641EF9D100202862686A38B1E3
:102BC0000849012738070860BFF34F8FBFF36F8FA5
:102BD000FFF78CFD3846BDE8F087000018000020A4
:102BE0000805002004ED00E0242C0008F91C000872
:102BF0000000000000000000800000000000000055
:102C0000000000000006101600061016000000006C
:102C1000000000000102030406070809000000008C
:102C20000102030464656661756C745461736B0022
:102C3000502C00080000002078000000022100084D
:102C4000C82C000878000020D044000012210008A1
:102C50000000000000000000010000001000000063
:102C6000000000000024F40000000000000000004C
:102C70000000000000000000000000000000000054
:102C80000000000000000000000000000000000044
:102C90000000000000000000000000000000000034
:102CA0000000000000000000000000000000000024
:102CB0000000000000000000000000000000000014
:082CC000AAAAAAAA0000000064
:04000005080001AD41
:00000001FF
