:020000040800F2
:10000000B0450020810200086B210008F11E0008A5
:1000100069210008B10300085D2700080000000006
:10002000000000000000000000000000C101000806
:10003000A5060008000000001D0200086D21000850
:100040009B0200089B0200089B0200089B0200081C
:100050009B0200089B0200089B0200089B0200080C
:100060009B0200089B0200089B0200089B020008FC
:100070009B0200089B0200089B0200089B020008EC
:100080009B0200089B0200089B0200089B020008DC
:10009000B50300089B0200089B0200089B020008B1
:1000A0009B0200089B0200089B0200089B020008BC
:1000B000752200089B0200089B0200089B020008B2
:1000C0009B0200089B0200089B0200089B0200089C
:1000D0009B020008512700089B0200089B020008B1
:1000E0009B0200089B0200089B0200089B0200087C
:1000F0009B0200089B0200089B0200089B0200086C
:100100009B0200089B0200089B0200089B0200085B
:100110009B0200089B0200089B0200089B0200084B
:100120009B0200089B0200081D0600089B020008B5
:100130009B0200089B0200089B0200089B0200082B
:100140009B020008C10300089B0200089B020008F4
:100150009B0200089B0200089B0200089B0200080B
:100160009B0200089B0200089B0200089B020008FB
:100170009B0200089B0200089B0200080000000090
:100180009B0200089B0200089B0200089B020008DB
:100190009B0200089B0200089B0200089B020008CB
:1001A00000000000000000009B020008DFF80CD0F7
:1001B00000F0ECF8004800479D270008B0450020FB
:1001C0002C4B19680868B0E8F04F80F30988BFF33A
:1001D0006F8F4FF0000080F311887047000000001F
:1001E00008480068006880F308884FF0000080F33A
:1001F000148862B661B6BFF34F8FBFF36F8F00DF15
:1002000000BF00BF08ED00E0DFF80C00016841F41A
:1002100070010160704700BF88ED00E0EFF30980D6
:10022000BFF36F8F134B1A681EF0100F08BF20ED3D
:10023000108A20E9F04F106009B44FF0500080F3AD
:100240001188BFF34F8FBFF36F8F02F0B3FE4FF0F3
:10025000000080F3118809BC19680868B0E8F04F05
:100260001EF0100F08BFB0EC108A80F30988BFF3AE
:100270006F8F704718000020EFF305807047000073
:100280000648804706480047FEE7FEE7FEE7FEE730
:10029000FEE7FEE7FEE7FEE7FEE7FEE721220008B5
:1002A000AD0100082DE9F05F0546002092469B460F
:1002B00088460646814640241BE02846414647467C
:1002C000224600F053F853465A46C01A914110D3C3
:1002D00011461846224600F03AF82D1A67EB01083D
:1002E0004F4622460120002100F031F817EB0009AB
:1002F0004E41201EA4F10104DFDC484631462A4667
:100300004346BDE8F09F40EA01039B0703D009E0A4
:1003100008C9121F08C0042AFAD203E011F8013BF1
:1003200000F8013B521EF9D27047D2B201E000F84A
:10033000012B491EFBD270470022F6E710B5134689
:100340000A4604461946FFF7F0FF204610BD202A52
:1003500004DB203A00FA02F1002070479140C2F11C
:10036000200320FA03F3194390407047202A04DB4E
:10037000203A21FA02F00021704721FA02F3D0401E
:10038000C2F120029140084319467047064C074DC0
:1003900006E0E06840F0010394E807009847103455
:1003A000AC42F6D3FFF706FF94330008B4330008DD
:1003B000FEE70000014800F0E8BA00007C000020E1
:1003C000014800F0E2BA0000A4000020054988427C
:1003D00001D1002070470449884201D101207047B3
:1003E000FF2070477C000020A400002010B50446C8
:1003F00010488AB0844202D10021084604E00E4829
:10040000844215D10E210120059100210122CDE960
:100410000612009101910291CDE903100E20CDE961
:1004200008206946204600F0B5F9204600F0D8FCC7
:100430000AB010BD7C000020A400002070B5144656
:100440000D46FFF7C3FFFF281AD000221D4BA5F56C
:100450008075FF3D1BD0012D12D1002103EB401010
:1004600050F821306BB11B8904EB41051B0A04F8DD
:10047000113050F821301B7A6B70491C0429EFDBD6
:1004800070BD04EB410304F811205A70F5E7002118
:1004900003EB401000EB81052B6963B11B891B0A3C
:1004A00004F811302B6904EB41051B7A6B70491C71
:1004B0000429EFDB70BD04EB410304F811205A70EE
:1004C000F5E70000704100200549884201D1022172
:1004D00003E00449884202D1102100F0E5B87047DA
:1004E0007C000020A40000202DE9F0430024DFF868
:1004F00098808DB025464FF0080900BF08EB8406B0
:100500007068B8B160B20021074600F043F80146B8
:10051000736807AA1D4898470021384600F03AF84A
:10052000CDE904590190012307AA01A903951748B1
:1005300000F0CCF8641C022CE0DBDFF84C800024D7
:1005400008F10C0808EB84077868B8B160B20121A3
:10055000064600F01FF801467B6807AA0C4898473A
:100560000121304600F016F8CDE90459019002232C
:1005700007AA01A90395064800F0A8F8641C022CFC
:10058000E0DB0DB0BDE8F083484100207C00002096
:10059000A400002000F2FF10002902D0012900D0A1
:1005A0000020704700B50B46FFF710FF5B1C59B2E7
:1005B00068B1012802D000BF4FF0FF3112D10229EB
:1005C00010D2094800EB81014B682BB10AE00229E7
:1005D00008D205480C38F5E74A600178491C0170DB
:1005E000012000BD002000BD544100201CB506497B
:1005F0000620CDE900010023C82204A1064802F02C
:1006000081FD01201CBD0000780000205461736B47
:100610005F43414E0000000049230008014800F0FC
:1006200025BC0000F803002001681823CAB2103A64
:10063000B2FBF3F2054B6FF30901032A9B5CC36520
:1006400000D9091D8165084670470000683300081D
:1006500010B5014600208B698A6A4FF0C07453B10F
:10066000B3F5005F15D072B1012A0CD0022A0AD06E
:10067000032A09D104E01AB1012A06D0022A03D1C3
:10068000C96AC90100D5012010BDC96AA142FAD0CA
:1006900010BD002AF7D0012AF2D0022AF3D0032A93
:1006A000F3D010BD7047704790F82020012A07D082
:1006B000022A05D0416A41F480214162012070473D
:1006C000006842690A43426100207047F0B590F823
:1006D00020500468A468012D05D0022D03D0416A82
:1006E00041F4802153E014F0406F01D1E5004BD577
:1006F000C4F30164022C03D9416A41F4000146E0CD
:100700000125A5401D608D684FF4C0739DB1CE6872
:1007100035434E6845EAC605066803EB0417F551F4
:100720004FF4C275076805EB04150E697E51097D0B
:10073000012905D009E00E88CD6845EA4655EBE76A
:1007400001684E5946F480764E511179D2F8055021
:100750004FF4C67641EA0525016806EB04168D5173
:100760001178D2F801204FF4C47541EA02210268E1
:1007700005EB04155151006803EB0411425842F097
:10078000010242500020F0BD416A41F40011416273
:100790000120F0BD10B590F82020012A07D0022AD0
:1007A00005D0416A41F480214162012010BD3B48DF
:1007B000D0F8002242F00102C0F80022D0F8002256
:1007C00022F47C52C0F80022D0F800224B6A42EAA0
:1007D0000322C0F800220A7D02F01F0301229A4082
:1007E000D0F81C329343C0F81C32CB69B3B9D0F8AF
:1007F0000C329343C0F80C328C894B6864F31F436E
:100800004C6900EBC404C4F840320C890B6864F3F3
:100810001F434C6900EBC404C4F84432CB69012B7C
:1008200016D1D0F80C321343C0F80C320C884B6848
:1008300064F31F434C6900EBC404C4F840320C89D4
:10084000CB6864F31F434C6900EBC404C4F8443222
:100850008B69002BD0F804320ED01343C0F8043259
:100860000B69002BD0F8143208D01343C0F81432AF
:10087000096A012904D008E09343EFE79343F5E7C1
:10088000D0F81C121143C0F81C12D0F8001221F04D
:100890000101C0F80012002010BD000000640040FB
:1008A000704730B590F82040012C05D0022C03D0C1
:1008B000416A41F480215DE00468002955D0246933
:1008C000A40754D04FF4D874056804EB01142D59D3
:1008D00015F00405956005682D594ED0ED0855605A
:1008E00005682C59C4F34004D4604FF4DA740568E9
:1008F00004EB01142D5905F00F05156105682D59FC
:10090000C5F30725956105682C59240C54614FF4F3
:10091000DC72046802EB0112A4581C700468A4582D
:10092000240A5C700468A458240C9C700468A258C3
:10093000120EDA704FF4DE72046802EB0112A45852
:100940001C710468A458240A5C710468A458240C1F
:100950009C710468A258120EDA71006881B10169B5
:1009600041F020010161002030BDE468A8E7416A40
:1009700041F400114162012030BD6D0D1560AFE7FB
:10098000C16841F02001C160EDE72DE9F05F054647
:10099000006800244669D0F804908768D0F80CB04D
:1009A000D0F810A0D0F81880F10748D0F90714D07B
:1009B00001218160B80703D5284600F03EFA0CE01B
:1009C000780702D54FF4006407E0380702D54FF4EA
:1009D000805402E0284600F02FFAF80516D5296861
:1009E0004FF480708860B80503D5284600F027FAD8
:1009F0000CE0780502D544F4005407E0380502D530
:100A000044F4804402E0284600F018FAF80316D5B2
:100A100029684FF480308860B80303D5284600F079
:100A200010FA0CE0780302D544F4004407E03803E0
:100A300002D544F4803402E0284600F001FA300781
:100A400007D55FEACB6004D52968102044F4007410
:100A5000C86070074FF0080707D55FEA0B7004D530
:100A60002868C760284600F09DF9B00706D52868B9
:100A7000C068800702D0284600F096F9700607D5B6
:100A80005FEACA6004D52968102044F480640861D4
:100A9000B00607D55FEA0A7004D5286807612846C2
:100AA00000F08EF9F00606D528680069800702D0AC
:100AB000284600F087F9B00308D55FEAC96005D57C
:100AC000296810204860284600F088F9F00307D50F
:100AD0005FEA097004D528684760284600F0B2F93B
:100AE000300446D55FEA497040D5F00504D55FEA89
:100AF000C87001D044F00104B00504D55FEA8870E5
:100B000001D544F00204700504D55FEA487001D5B0
:100B100044F00404300529D518F0700F26D008F0F1
:100B20007000402815D006DC102809D020280AD0F3
:100B3000302816D10AE050280ED0602811D10EE0DE
:100B400044F008040DE044F010040AE044F02004EE
:100B500007E044F0400404E044F0800401E044F481
:100B600080742868816921F07001816129680420FE
:100B70004860002C05D0686A204368622846FFF769
:100B80008FFEBDE8F09F70B5040003D094F82000FC
:100B900010B104E0012070BD204600F081F820680B
:100BA000016821F00201016000F086FB0546052680
:100BB00004E000F081FB401B0A2811D8206840683F
:100BC0008007F6D42068016841F00101016000F05F
:100BD00073FB05460BE000F06FFB401B0A2806D9AB
:100BE000606A40F40030606284F82060D2E72068D8
:100BF0004068C007EFD0207E0128206801683DD002
:100C000021F080010160607E01282068016838D0F1
:100C100021F040010160A07E01282068016833D0E6
:100C200021F020010160E07E0128206801682ED0BB
:100C300041F010010160207F01282068016829D05F
:100C400021F008010160607F01282068016824D03C
:100C500021F004010160D4E902010843D4E904123F
:100C6000114308436168491E08432168C861002098
:100C70006062012084F82000002070BD41F08001F6
:100C8000C0E741F04001C5E741F02001CAE721F08B
:100C90001001CFE741F00801D4E741F00401D9E7A2
:100CA0002DE9F04387B0044614216846FFF744FB62
:100CB000384B3948DFF8D8801968D4F800C0364A74
:100CC000022503260927DFF8D49010300024491CA0
:100CD000C44524D11960012907D1016841F0007190
:100CE0000160006800F000700590106840F002009C
:100CF0001060106802AB00F0020005904FF44070E5
:100D0000CDE9000583E8D0006946484600F0E8F9DF
:100D100000220521142000F05BFB142032E0DFF8F4
:100D20008080C44530D1D0F800C04CF0806CC0F851
:100D300000C0D0F800C001290CF0806CCDF814C0C0
:100D4000196007D1016841F000710160006800F08E
:100D500000700590106840F002001060106802AB4F
:100D600000F0020005906020CDE9000583E8D00086
:100D70006946484600F0B4F900220521412000F000
:100D800027FB412000F016FB07B0BDE8F083000010
:100D9000006400400000002030380240000402409F
:100DA000006800407047000000B589B007AB6A4694
:100DB00000210248FFF775FD09B000BD7C0000204E
:100DC0007047000000B589B007AB6A4601210248B0
:100DD000FFF767FD09B000BDA400002070470000C8
:100DE00070B5044690F82000012804D0606A40F4F1
:100DF0000020606218E0022084F82000206801686A
:100E000021F00101016000F057FA05460EE000BF35
:100E100000F052FA401B0A2808D9606A40F40030FA
:100E20006062052084F82000012070BD20684068C1
:100E3000C007EDD1606270BD704770477047704762
:100E400070477047704790F83510022903D0802111
:100E5000416501207047052180F835100068016860
:100E600021F0010101600020704700002DE9F843E6
:100E700004464FF00009CDF8009063484FF4165136
:100E8000A56D0068B0FBF1F72E6894F85C1008209F
:100E900000FA01F131420FD021680A6852070BD5E0
:100EA0000A6822F004020A6094F85C108840A86086
:100EB000606D40F00100606594F85C104FF001082F
:100EC00008FA01F0304208D021684969090604D5C2
:100ED000A860606D40F00200606594F85C1004202A
:100EE0008840304208D021680968890704D5A86085
:100EF000606D40F00400606594F85C10102088403C
:100F0000304218D021680968090714D5A860206804
:100F10000168490304D50068000308D5A16C07E007
:100F20000168C90503D4016821F008010160216C42
:100F300009B12046884794F85C1020208840304250
:100F400031D021680968C9062DD5A86094F835000C
:100F500005282068016806D0490347D500680003CA
:100F60001DD4616C1CE021F016010160206841690C
:100F700021F080014161206C08B9A06C20B120688B
:100F8000016821F00801016094F85C103F2088405E
:100F9000A86084F8349084F83580216D1FE0E16BFF
:100FA00009B120468847606D00282BD0606DC007CE
:100FB00014D0052084F835002068016821F0010173
:100FC00001600098401C0090B84203D82068006877
:100FD000C007F6D184F8349084F83580E16C00299C
:100FE00010D001B02046BDE8F04308470168C905AC
:100FF000D5D4016821F01001016084F8349084F8A0
:101000003580CCE7BDE8F883140000202DE9F041DD
:10101000044600F051F906465CB1002584F83450CE
:10102000022084F835002068016821F00101016088
:101030000DE00120BDE8F08100F03EF9801B05289D
:1010400005D920206065032084F83500F2E7206888
:101050000068C007F0D12268116820480140D4E937
:1010600001031843D4E90336334318436369184333
:10107000A3691843E3691843236A18430843616A64
:10108000042903D1D4E90B131943084310602068E5
:101090004069666A20F0070130460E4301270428A4
:1010A0000CD1A06A0643E06A40B12046FFF7D0FAAF
:1010B00020B14020606584F83570BAE72068466149
:1010C0002046FFF7B1FA94F85C203F2191408160FF
:1010D000656584F835700020ACE700003F8010F0B3
:1010E0002DE9F84FDFF890B100224FF001084FF0E2
:1010F000030A4FF00F090BF1040E00BF0B6808FA4A
:1011000002F42340A3426ED14D68022D01D0122D6E
:101110000ED1D50800EB850CDCF820505607F70EF1
:1011200009FA07F6B5430E69BE402E43CCF820609D
:10113000066855000F790AFA05FC07F0030726EA4E
:101140000C06AF40374307604E68012E05D0022ED3
:1011500003D0112E01D0122E0ED18768CE6827EA57
:101160000C07AE403E4386604668A6430C79C4F344
:101170000014944034434460C4688E6824EA0C042C
:10118000AE402643C6604C68E4006FD53B4C2568F2
:1011900045F480452560246822F0030504F480446A
:1011A0000094374C2E19D6F8084895072F0F09FAE6
:1011B00007F5AC43334DA84201D100252EE0324D56
:1011C000A84201D1012529E0304DA84201D10225D4
:1011D00024E02F4DA84201D103251FE02D4DA84248
:1011E00002D104251AE041E02B4DA84201D105258A
:1011F00014E02A4DA84201D106250FE0284DA8424F
:1012000001D107250AE0274DA84201D1082505E0B4
:10121000254DA84201D1092500E00A25BD402543FE
:10122000C6F80858DBF800405D464E689C43F6035C
:1012300000D51C432C60DEF8004075464E689C4388
:10124000B60300D51C432C600B4D08352C684E6846
:101250009C43F60200D51C432C60074D0C352C68CE
:101260004E689C43B60200D51C432C60521C102AC9
:10127000FFF444AFBDE8F88F003C01404438024021
:10128000003001400000024000040240000802401B
:10129000000C0240001002400014024000180240FE
:1012A000001C024000200240002402400AB181617B
:1012B00070470904FBE700000148806870470000A0
:1012C000080000200248816802781144816070475C
:1012D000080000200B4810B5016841F4007101605E
:1012E000016841F480610160016841F4807101602E
:1012F000032000F08DF8002000F006F800F03EF822
:10130000002010BD003C024010B5014688B000220C
:101310001C2000F05DF81C2000F04CF8144800245C
:10132000016841F001010160006805A900F00100B9
:101330000690684600F04EF900F06CF90D49400047
:10134000B0FBF1F10C484FF08042491E026040F2C0
:10135000E732C0E90324C0E9011400F0B3FB10B187
:10136000012008B010BD044800F0C8FBF9E70000F8
:101370004038024040420F00780300200C4882B001
:10138000016841F480410160006800F480400090F1
:101390000748001F016841F0805101600068002289
:1013A00000F0805000900F21901E02B000F010B8A5
:1013B00044380240002809DB00F01F02012191405F
:1013C0004009800000F1E020C0F8001170470000E3
:1013D000F0B40E4B1B680C46C3F30223C3F10705A0
:1013E000042D00D90425191D072901D2002300E08E
:1013F000DB1E012606FA05F1491E214099409E4058
:10140000761E16403143F0BC01F0A9B90CED00E0A6
:10141000064900F0070208684FF6FF03184040EA4B
:101420000220034A10430860704700000CED00E002
:101430000000FA052DE9F8431748016841F0805192
:1014400001600068154F00F08050012600903E6456
:10145000FFF732FF05464FF47A78114C05E000BFE4
:10146000FFF72AFF401B40450DD86068C003F7D541
:101470007E64FFF721FF0546464607E0FFF71CFFA5
:10148000401BB04202D90320BDE8F88360688003A6
:10149000F4D50020F8E700004038024000000E427A
:1014A000007000402DE9F0470E46050065D0DFF8DA
:1014B0001481D8F80000F7B200F00F00B04207D254
:1014C00088F80070D8F8000000F00F00B04254D146
:1014D00028683D4C810712D5400703D5206840F4A9
:1014E000E05020602878000703D5206840F4604071
:1014F00020602068A96820F0F00008432060287868
:10150000C0072DD0304968680839012812D0022858
:1015100013D0032811D00968890700292DDA216822
:1015200021F0030101432160FFF7C6FE814641F22D
:10153000883A0EE009688903EFE709688901ECE75A
:10154000FFF7BAFEA0EB0901514502D90320BDE81F
:10155000F0872068696800F00C00B0EB810FEFD1D4
:10156000D8F80010404601F00F01B14207D90770CA
:10157000006800F00F00B04201D00120E7E72878B2
:10158000400705D52068E96820F4E0500843206052
:101590002878000706D52068296920F4604040EAD1
:1015A000C100206000F056F82168084AC1F3031119
:1015B000515CC840064908600020FFF7A5FE0020E6
:1015C000C5E70000003C02400838024070330008C4
:1015D000140000200F2202600C4A136803F003037A
:1015E0004360136803F0F0038360136803F4E0536F
:1015F000C36012684FF4E05303EAD2020261044868
:10160000006800F00F0008607047000008380240D2
:10161000003C02400448054900680968044AC1F3D7
:101620008221515CC84070471400002008380240F5
:10163000803300080448054900680968044AC1F37A
:101640004231515CC8407047140000200838024005
:1016500080330008154810B5006810F00C021448DB
:1016600013D01449042A0FD0082A0ED10F4C241F7E
:101670002268236802F03F025B0207D52068C0F3AE
:101680008810A0FB010106E0084610BD2168C1F3E7
:101690008811A1FB00010023FEF704FE2168C1F3BD
:1016A0000141491C4900B0FBF1F010BD083802406F
:1016B0000024F400001BB7002DE9F84F050076D098
:1016C0002878DFF8F8B2BE4CC00749D0DBF800102C
:1016D0005846C1F38101012908D00068C0F3810098
:1016E00002280AD1201D0068400206D52068800328
:1016F00036D568680028E2D032E06868B0F5803FEF
:1017000010D0B0F5A02F206810D020F480302060D9
:10171000206820F4802020606868A0B1FFF7CCFD2D
:1017200006460CE0206840F48030F4E740F4802066
:101730002060F7E7FFF7C0FD801B642873D820689E
:101740008003F7D50CE0FFF7B7FD064605E000BFC4
:10175000FFF7B2FD801B6428F0D820688003F7D41F
:101760002878DFF8608280074FF000093ED5DBF86B
:101770000010584611F00C0F09D00068C0F381002A
:1017800002280BD18D48001F0068400206D4206853
:10179000800715D5E868012809D111E0E868B8B1DB
:1017A0000120C8F80000FFF787FD064605E002E1CA
:1017B000FFF782FD801B0228C0D820688007F7D57C
:1017C0002068296920F0F80040EAC10020600DE09F
:1017D000C8F80090FFF770FD064604E0FFF76CFDC7
:1017E000801B02281FD820688007F7D428780007BC
:1017F00022D5724E744869696C3671B1012101605D
:10180000FFF75AFD074604E0FFF756FDC01B02280C
:1018100009D830688007F7D50EE0C0F80090FFF7D0
:101820004BFD074605E083E0FFF746FDC01B02289D
:101830007ED830688007F7D42878400768D5DFF86D
:101840007CA100270AF1380ADAF80000C0000BD4A6
:10185000DAF8001041F08051CAF80010DAF8000000
:10186000012700F080500090584E3068C00510D419
:10187000306840F480703060FFF71EFD009005E096
:10188000FFF71AFD0099401A022851D83068C005A8
:10189000F6D54A4EA868683601280FD0052830686A
:1018A00010D020F001003060306820F0040030607B
:1018B000A868B8B1FFF700FD00900FE0306840F075
:1018C0000100F4E740F004003060F7E7FFF7F4FCB4
:1018D0000099411A41F28830814264D8306880070B
:1018E000F4D50EE0FFF7E8FC009007E0FFF7E4FC1A
:1018F0000099411A41F28830814254D830688007FB
:10190000F4D42FB1DAF8001021F08051CAF8001099
:10191000A869C0B3DBF80010C1F3810102294AD0E5
:101920000228484607D0C8F86000FFF7C5FC00E071
:1019300039E005463AE04746C8F86000FFF7BCFCCE
:10194000064604E0FFF7B8FC801B02282BD820686D
:101950008001F7D4D5E907010843A96A1C4A490860
:1019600002EB01416A6A41EA8211084395F82C10A2
:1019700040EA01611148001F016001203866FFF74D
:101980009BFC054605E014E0FFF796FC401B02288F
:1019900009D820688001F7D50BE000BFFFF78CFC69
:1019A000401B022802D90320BDE8F88F206880017F
:1019B000F4D40020F8E70120F6E7000008380240E0
:1019C0000038024000004742800E4742007000404D
:1019D0000000FFFF70B5040005D00025A56294F853
:1019E000510010B106E0012070BD84F8505020462F
:1019F00000F030F8022084F851002068016821F0DE
:101A000040010160D4E901010843D4E90312114304
:101A1000084361690843218B01F400710843E169BF
:101A20000843216A0843A16A084321680860A06945
:101A3000042101EA1040616A084321684860206877
:101A4000C16921F40061C1616565012084F851001C
:101A5000002070BD10B586B0044614216846FEF71C
:101A60006BFC14492068884221D113480021026888
:101A700042F480120260006800F4801005900E4865
:101A80001438026842F020020260006800F0200072
:101A900005904FF4607000900220CDE90101032011
:101AA00003900520049069460448FFF719FB06B02F
:101AB00010BD0000005001404438024000140240B4
:101AC0007047704710B5040003D094F83D0010B182
:101AD00007E0012010BD002084F83C00204600F003
:101AE0000CF8022084F83D00211D206800F0C8FB9E
:101AF000012084F83D00002010BD70470168CA68CD
:101B000042F00102CA600068816801F007010629FD
:101B100003D0016841F00101016000207047704767
:101B200070B50446006801694FF00005C943890794
:101B300015D4C168C943890711D4E91E0161012088
:101B40002077206880698007204602D0FFF7E7FFF2
:101B500004E000F098F8204600F096F82577206819
:101B60000169C943490717D4C168C943490713D458
:101B70006FF004010161022020772068806910F471
:101B8000407F204602D0FFF7CAFF04E000F07BF858
:101B9000204600F079F8257720680169C9430907D4
:101BA00016D4C168C943090712D46FF00801016156
:101BB000042020772068C0698007204602D0FFF704
:101BC000AEFF04E000F05FF8204600F05DF82577F6
:101BD00020680169C943C90617D4C168C943C90649
:101BE00013D46FF010010161082020772068C069CC
:101BF00010F4407F204602D0FFF791FF04E000F090
:101C000042F8204600F040F8257720680169C94372
:101C1000C90708D1C168C943C90704D1891E016138
:101C2000204600F032F820680169C943090609D44A
:101C3000C168C943090605D46FF0800101612046DF
:101C4000FFF73EFF20680169C943490609D4C1680E
:101C5000C943490605D46FF040010161204600F0F8
:101C60001BF820680169C94389060BD4C168C943C0
:101C7000890607D46FF0200101612046BDE870405D
:101C8000FFF71FBF70BD704770470068B0F1804F0D
:101C900001D1FFF717BB70477047704770B50268F6
:101CA00004461068D168536910F00F0F50D003F04C
:101CB000010501F4907635435DD0C20705D0CA0511
:101CC00003D5E26B42F00102E263420705D5DA0771
:101CD00003D0E26B42F00202E263820705D5DA0725
:101CE00003D0E26B42F00402E263020705D5DA0793
:101CF00003D0E26B42F00802E263E26B002A33D0C9
:101D0000800604D5880602D5204600F04EFB2068E8
:101D10004069E16BC0F38010090700D428B3204666
:101D200000F035FB2068416949061AD5416921F068
:101D300040014161606BA0B11B490165606BFFF719
:101D400082F8002810D0606B016DBDE87040084734
:101D5000830610D58B060ED52046BDE8704000F0F6
:101D600024BB2046FFF799FF70BD2046FFF795FF83
:101D70000020E06370BD030606D50B0604D520469F
:101D8000BDE8704000F0B2BC4006F3D54806F1D57E
:101D9000D168204621F04001D160202184F839101B
:101DA00000F0A5F870BD00007F23000870B50400A6
:101DB00004D094F83900002510B106E0012070BD70
:101DC00084F83850204600F023F8242084F83900A5
:101DD0002068C16821F40051C160204600F030FB4A
:101DE0002068016921F4904101612068416921F076
:101DF0002A0141612068C16841F40051C160E56376
:101E0000202084F8390084F83A00002070BD0000DA
:101E10002DE9F04387B0064614216846FEF78CFA98
:101E20002C493068884252D12B480025016841F086
:101E3000100101600068284900F010001439059075
:101E4000086840F002000860086800F00200059091
:101E5000086840F00100086008684FF0070800F0CB
:101E6000010005908020022401274FF00309CDF8DE
:101E700010808DE8910269461848FFF731F9200279
:101E8000CDF810808DE8910269461548FFF728F9D2
:101E9000154C14482060F806C4E901054014C4E953
:101EA000035080106561C4E90650256220466562D2
:101EB000FFF7ACF808B1FEF7F6FB746300220521CA
:101EC0002520A663FFF784FA2520FFF773FA07B0F1
:101ED000BDE8F08300100140443802400004024095
:101EE0000000024040640240F80300207047704741
:101EF000FEE7000010B50748FEF778FA0548FEF740
:101F0000E3FA0548FEF772FA0348FEF7DDFA01200E
:101F100010BD00007C000020A400002070B54FF42C
:101F20000074154A21461548FEF73CFB651E124A0F
:101F300029461248FEF736FB0F4A21461048FEF7A5
:101F400031FB0D4A29460E48FEF72CFB00210D4AB5
:101F50000C46002002EB411343F82040401CC0B265
:101F60000828F9D3491CC9B20229F2D30548103810
:101F70001060012070BD00003D0400087C000020BE
:101F8000A4000020704100200F4810B50D490160E9
:101F90000521416000214FF480228160C0E90312D5
:101FA000D20042610176012242768276C2760177C2
:101FB0004177FEF7E8FD002803D0BDE81040FEF7AA
:101FC00072BB10BD006400407C0000200F4810B5BB
:101FD0000D4901600521416000214FF4802281609C
:101FE000C0E90312D2004261017601224276827674
:101FF000C27601774177FEF7C6FD002803D0BDE821
:102000001040FEF750BB10BD00680040A400002047
:10201000094808B5016841F48001016000680022A8
:1020200000F48000009005213A20FFF7D1F9BDE8C7
:1020300008403A20FFF7BEB93038024000B587B0FB
:102040001C2206496846FEF75EF90021684600F04A
:10205000C5FB0349086007B000BD00004C33000811
:102060000400002030B587B014216846FEF764F9FB
:102070001A480024016841F002010160016801F082
:1020800002010591016841F001010160016801F060
:1020900001010591016841F080010160016801F0D2
:1020A00080010591016841F02001016000680C4D3C
:1020B00000F020000590012240212846FFF7F6F8A5
:1020C000402000900120CDE90104022003906946E0
:1020D0002846FFF705F807B030BD00003038024051
:1020E00000140240104810B50E4901604FF482718F
:1020F000416000218160C1604FF400720161C0E95C
:1021000005122822C0E90721416281620A21C162C9
:10211000FFF760FC002803D0BDE81040FEF7C3BA0B
:1021200010BD000000500140200300200C4810B5F5
:102130000A4901600B494160002181600422C160AD
:10214000C0E904128161C161FFF730FE002803D0AD
:10215000BDE81040FEF7A7BA10BD00000010014016
:10216000B8030020A0860100FEE7704710B550209C
:1021700080F31188BFF34F8FBFF36F8F01F020F80A
:1021800018B104494FF080500860002080F3118896
:1021900010BD000004ED00E030B593B0302168467A
:1021A000FEF7CAF814210CA8FEF7C6F81A48002555
:1021B000016841F080510160006800F0805011908A
:1021C0001648016841F4404101600068022400F4AF
:1021D0004040119001200390102004900094069438
:1021E0000820CDE90750B420CDE9090404200B9064
:1021F0006846FFF761FAFFF71DF90CA90F2081E887
:1022000031004FF4A0500F90E002109005210CA86F
:10221000FFF748F913B030BD40380240007000406D
:102220001048016841F4700101600F48016841F0F5
:10223000010101600C4A00210832116002680B4B59
:102240001A400260031D0A4A1A60026822F48022C2
:10225000026005480C300160024958068039086068
:102260007047000088ED00E000380240FFFFF6FEF6
:10227000103000240148FFF753BC00007803002011
:10228000F0B50268254C264D264E274F274B4FF0C0
:10229000804CA04209D0604507D0A84205D0B0428A
:1022A00003D0B84201D0984204D122F0700E4A689F
:1022B00042EA0E02A0421BD0604519D0A84217D0B6
:1022C000B04215D0B84213D0984211D0184DA84250
:1022D0000ED0184DA8420BD0174DA84208D0174D6C
:1022E000A84205D0164DA84202D0164DA84203D1EF
:1022F00022F44075CA682A434D6922F080022A43BD
:1023000002608A68C2620A688262A04201D0984272
:1023100001D10969016301214161F0BD0000014063
:102320000004004000080040000C00400004014090
:1023300000400140004401400048014000180040B6
:10234000001C00400020004008B500F033FF009062
:10235000FEF7CAF80321684600F052FDF8E710B511
:1023600000F0DAFCFFF7C6FDFFF7D8FDFEF73EF9F7
:10237000002000F08BFDBDE8104000F0EDBC10B572
:10238000806B0021C185C184FFF787FC10BD016807
:10239000CA6822F49072CA6001684A6922F0010298
:1023A0004A61202180F83A10704710B590F83A1031
:1023B000222901D0022010BD8168B1F5805F11D0C3
:1023C0000169002901681FD0496801F07F03816A13
:1023D0004A1C82620B70C18D491E0904090CC1851B
:1023E00018D02BE00269816A002A0268526805D081
:1023F000D2B20A80816A491C8162ECE7C2F308020A
:102400000A80816A891CF7E74A68816A4B1C8362EB
:102410000A70E0E70168CA6822F02002CA60016819
:10242000CA6822F48072CA6001684A6922F0010217
:102430004A61202180F83A10FFF758FD002010BDB6
:102440002DE9F041044600680169E26821F4405139
:10245000114301612169A068E26908436169114380
:1024600022680843D16849F20C6399430143D16063
:1024700020684169A26921F4407111434161E26918
:102480006425B2F5004F9748974922684FF032080B
:102490003FD08A4201D082427CD1FFF7CBF800EBDB
:1024A000C00101EB001061688900B0FBF1F6FFF795
:1024B000C1F800EBC00101EB001061688900B0FBBE
:1024C000F1F0B0FBF5F06FF01801484306EB800126
:1024D00008EB0110B0FBF5F000F0F006FFF7AAF8EA
:1024E00000EBC00101EB001061688900B0FBF1F066
:1024F000B0FBF5F006EB0016FFF79CF800EBC0010F
:1025000001EB001061688900B0FBF1F7FFF792F86A
:10251000D2E08A4201D082423DD1FFF78BF800EB36
:10252000C00101EB001061684900B0FBF1F0B0FBA5
:10253000F5F00601FFF77EF800EBC00101EB00109B
:1025400061684900B0FBF1F7FFF774F800EBC001D8
:1025500001EB001061684900B0FBF1F0B0FBF5F051
:102560006FF01801484307EB800108EBC100B0FB96
:10257000F5F000F0F80006EB4006FFF75BF800EB23
:10258000C00101EB001061684900B0FBF1F7FFF7F3
:1025900051F83CE055E0FFF73DF800EBC00101EBDE
:1025A000001061684900B0FBF1F0B0FBF5F00601E6
:1025B000FFF730F800EBC00101EB00106168490043
:1025C000B0FBF1F7FFF726F800EBC00101EB0010BC
:1025D00061684900B0FBF1F0B0FBF5F06FF0180155
:1025E000484307EB800108EBC100B0FBF5F000F0B9
:1025F000F80006EB4006FFF70DF800EBC00101EB19
:10260000001061684900B0FBF1F7FFF703F800EB39
:10261000C00101EB001061684900B0FBF1F0B0FBB4
:10262000F5F06FF01801484307EB800108EBC1009B
:10263000B0FBF5F000F00700216830448860BDE889
:10264000F081FEF7E7FF00EBC00101EB00106168CD
:102650008900B0FBF1F6FEF7DDFF00EBC00101EBF6
:10266000001061688900B0FBF1F0B0FBF5F06FF08D
:102670001801484306EB800108EB0110B0FBF5F0B0
:1026800000F0F006FEF7C6FF00EBC00101EB001002
:1026900061688900B0FBF1F0B0FBF5F006EB0016C5
:1026A000FEF7B8FF00EBC00101EB00106168890084
:1026B000B0FBF1F7FEF7AEFF00EBC00101EB00103D
:1026C00061688900B0FBF1F0B0FBF5F06FF0180124
:1026D000484307EB800108EB0110B0FBF5F000F078
:1026E0000F00A9E7001401400010014090F83910D4
:1026F000212901D0022070478168B1F5805F016A0D
:102700000BD04A1C0262026809785160C18C491ED4
:102710000904090CC1840ED017E009880268C1F3CE
:102720000801516001690029016A02D0491C016257
:10273000ECE7891CFBE70168CA6822F08002CA60E6
:102740000068C16841F04001C1600020704700008E
:102750000148FFF7A3BA0000B8030020FEE709070D
:10276000090E002804DB00F1E02080F80014704717
:1027700000F00F0000F1E02080F8141D704702E027
:1027800008C8121F08C1002AFAD1704770470020FC
:1027900001E001C1121F002AFBD17047FEF79AFD2C
:1027A000FFF7FAFCFFF75EFCFFF7EEFBFFF70EFC0E
:1027B000FFF72EFCFFF796FCFFF7B8FCFFF73EFC97
:1027C00000F007F8FEE701460020842900D0C81C6D
:1027D000704710B500F0B0FB002010BD7FB50D466E
:1027E00004464169B0F9080081B1A16971B1FFF7F0
:1027F000EAFFD4E905128DE80700D4E900102B4662
:10280000226900F0ACFC039004B070BDFFF7DBFF61
:1028100003A9CDE90001208A2B4682B2D4E9001039
:1028200000F070FC012801D00020EDE70398EBE7F1
:102830002DE9F041184C0F46054666692068001DD9
:1028400000F01AFA38B9206890F82C10012088405E
:10285000A1698143A161681C07D137B12168BDE836
:10286000F0410E48091D00F04BBA20683544B542CE
:102870004560216805D2A068BDE8F041091D00F05F
:1028800027BA6068091D00F023FA206B854200D248
:102890002563BDE8F0810000180000203405002009
:1028A0002DE9F041054600F037FA2E4C2069401C16
:1028B000206120682C4F10B1E06940B32DE0256005
:1028C0002069012829D1002606EB860007EB80004D
:1028D00000F0F0F9761C072EF6D323488C3000F078
:1028E000E9F92148A03000F0E5F91F48B43000F0C4
:1028F000E1F91D48C83000F0DDF91B48DC3000F07C
:10290000D9F919488C3060601430A06005E0206867
:10291000E96AC06A884200D82560E06A401CE0622B
:10292000E96A0120A26988401043A06101EB81009F
:1029300007EB8000291D00F0E3F900F00DFAE069D3
:1029400000280CD02068E96AC06A884207D207498B
:102950004FF080500860BFF34F8FBFF36F8FBDE81B
:10296000F0810000180000205804002004ED00E071
:1029700010B5044690F8510058B101280CD0022837
:102980000FD0502080F31188BFF34F8FBFF36F8FAC
:10299000FEE7206B00F0F4F92046BDE8104000F09F
:1029A000EFB910BD10484FF47051420706D0C01D5A
:1029B0000D4920F00700411AC1F570510B4A002360
:1029C0000144C2E900030839103A21F007011160FF
:1029D0004B600B600B1AC0E9001393604FF000408E
:1029E0005360D0607047000048050020640000205C
:1029F000144E154CA6F1C8074FF08058DFF84C90E4
:102A000012E000BF00F088F9F068C568281D00F0EA
:102A100033F92069401E2061E068401EE06000F04C
:102A20009BF92846FFF7A4FFE0680028EAD1386840
:102A30000128F9D9C9F80080BFF34F8FBFF36F8F1A
:102A4000F2E70000200500201800002004ED00E05F
:102A50002DE9F0479A46DDE9098481466FF00303CA
:102A6000206B03EB82021044089D20F007067007DC
:102A700007D0502080F31188BFF34F8FBFF36F8FC3
:102A8000FEE723180A5C83F834200A5C12B1401C6C
:102A90001028F6D3002784F84370072D00D30625AD
:102AA000E562C4E91157201D00F00FF904F1180088
:102AB00000F00BF92461C5F107006462A061E764CE
:102AC00084F8507052464946304600F0BFF8206006
:102AD000B8F1000F01D0C8F80040BDE8F087000051
:102AE00030B5114900E011460A688242FBD34B68B9
:102AF0005C18844203D14068184448600846436823
:102B00001C18944209D1084C103C2468A24209D0F8
:102B100052681A4442600A6812680260814200D01A
:102B2000086030BD0460F9E7640000200648416891
:102B3000096829B14168C968C96849680163704773
:102B40004FF0FF31FAE70000180000200848406805
:102B5000401C4FF0500080F3118804D0BFF34F8F1A
:102B6000BFF36F8FFEE7BFF34F8FBFF36F8FFEE7AB
:102B70006C0000202DE9F0410546002700F012FA14
:102B8000314E306808B9FFF70DFFF06805424BD1B0
:102B9000C5B3083568070ED005F00700C0F108007E
:102BA0000544680707D0502080F31188BFF34F8F8A
:102BB000BFF36F8FFEE72DB37068854234D822488B
:102BC000103001460C6801E020460C466168A942BD
:102BD00002D221680029F7D131688C4224D00768DD
:102BE0002168016060680837411B10290FD96019FE
:102BF000420708D0502080F31188BFF34F8FBFF3F6
:102C00006F8FFEE710E041606560FFF769FF616864
:102C10007068401A7060B268904200D2B060F0688C
:102C200001430020C4E9000100F02EFB780707D023
:102C3000502080F31188BFF34F8FBFF36F8FFEE7F3
:102C40003846BDE8F08100005400002010B5031F95
:102C50004FF080741C601B1F21F001011960191FC7
:102C6000044B0B6014390A60091F6FF002024438EC
:102C70000A6010BD4D2B0008D0E9013201699A604D
:102C8000D0E901235A604A68824201D182684A60D1
:102C9000002202610868401E086008687047000052
:102CA000034B036003F154000860802010607047FC
:102CB000CC00002000F108014FF0FF32C0E9011202
:102CC000C16001610021016070470021016170470E
:102CD00030B50B685A1C02D000F1080202E002690C
:102CE00004E02246546825689D42FAD953684B6037
:102CF00099608A60516008610168491C016030BDBB
:102D000042684A6093688B6093685960916008617B
:102D10000168491C01607047502080F31188BFF39F
:102D20004F8FBFF36F8F0A494868401C48600128E5
:102D30000CD10848006810F0FF0F07D0502080F336
:102D40001188BFF34F8FBFF36F8FFEE7704700000E
:102D50006C00002004ED00E00849486828B1401EDE
:102D6000486001D180F311887047502080F31188AA
:102D7000BFF34F8FBFF36F8FFEE700006C000020A2
:102D800070B5002827D0144DA0F108046168E868E8
:102D9000014207D1502080F31188BFF34F8FBFF35A
:102DA0006F8FFEE722683AB1502080F31188BFF39D
:102DB0004F8FBFF36F8FFEE78143616000F0F2F841
:102DC00060686968084468602046FFF789FEBDE8CE
:102DD000704000F059BA70BD540000204FF0E02060
:102DE00000210161816105494FF47A720968B1FBE4
:102DF000F2F1491E41610721016170471400002072
:102E000070B50D4604000BD095B11E4A906BB8B159
:102E1000502080F31188BFF34F8FBFF36F8FFEE711
:102E2000502080F31188BFF34F8FBFF36F8FFEE701
:102E3000502080F31188BFF34F8FBFF36F8FFEE7F1
:102E400000F0B0F8526923685919934204D98B42B3
:102E50000AD9914202D807E08B42FAD9881A216038
:102E60000021FFF7E5FC00E0216000F00DFA0028EA
:102E700007D105494FF080500860BFF34F8FBFF373
:102E80006F8F70BD1800002004ED00E070B505469E
:102E9000FFF742FF254C05B92568281DFFF7ECFE1A
:102EA00058B9E86A224A00EB800152F8211021B992
:102EB00001218140A0698843A061A86A18B105F189
:102EC0001800FFF7D9FEE06A401CE06220688542E6
:102ED00008D11748291DC830FFF712FFE068401CD1
:102EE000E06007E02069401E20612846FFF740FDB2
:102EF000FFF71CFEFFF730FFE069002814D02068C0
:102F0000854211D1A06B38B1502080F31188BFF3F6
:102F10004F8FBFF36F8FFEE706494FF08050086078
:102F2000BFF34F8FBFF36F8F70BD000018000020FC
:102F30005804002004ED00E010B586B0002403948E
:102F400005AA04A903A80494FFF7AAFEDDE903017A
:102F50000094CDE9011000230EA11048059A00F05D
:102F6000FEF80F490028486311D0502080F31188E3
:102F7000BFF34F8FBFF36F8F4FF0FF300863012017
:102F8000C8614C6106B0BDE8104000F041B806B021
:102F900010BD000049444C4500000000F129000824
:102FA000180000200248816B491C816370470000B3
:102FB000180000201448816B11B101214162704753
:102FC000002141628169B1FA81F1C1F11F0101EB78
:102FD00081020E4951F822306BB101EB820101F1FF
:102FE00008034A6852684A609A4201D152684A60AE
:102FF000D16801607047502080F31188BFF34F8F74
:10300000BFF36F8FFEE70000180000205804002077
:103010001CB537480168374A914207D1502080F3E8
:103020001188BFF34F8FBFF36F8FFEE70068314900
:10303000491E884207D1502080F31188BFF34F8F7B
:10304000BFF36F8FFEE72C4908780190FF200870CE
:1030500008788DF800009DF800009DF8002000F031
:10306000F000904207D0502080F31188BFF34F8FBB
:10307000BFF36F8FFEE79DF80000204B00F050007B
:1030800018700720986005E09DF8002052008DF828
:103090000020401E9DF800201206F5D498600328F9
:1030A00007D0502080F31188BFF34F8FBFF36F8F8D
:1030B000FEE74FF440709860019808700C4820308B
:1030C000016841F470010160016841F070410160E4
:1030D000FFF784FE00205860FDF796F80848016865
:1030E00041F040410160FDF77BF800201CBD00006D
:1030F00000ED00E071C20F4100E400E06C00002030
:1031000034EF00E02DE9FF5F8346DDE90E87994645
:1031100016468A469000FFF72DFD05001CD054206E
:10312000FFF728FD040014D00020256384F8510027
:10313000CDE90240CDE900874B463246514658461C
:10314000FFF786FC2046FFF7ABFB012004B0BDE88B
:10315000F09F2846FFF714FE4FF0FF30F6E7F0B57A
:1031600085B0DDE90B640A9DA6B1DCB15427009758
:103170002663022684F85160002604AFCDE902469A
:10318000CDE90057FFF764FC2046FFF789FB049860
:1031900005B0F0BD502080F31188BFF34F8FBFF30F
:1031A0006F8FFEE7502080F31188BFF34F8FBFF37E
:1031B0006F8FFEE70148406970470000180000204B
:1031C0002DE9F0412E4C0027A06B40B1206A401C35
:1031D0002062606A00B101273846BDE8F081666967
:1031E000761C666113D16068006838B1502080F3A6
:1031F0001188BFF34F8FBFF36F8FFEE76068A16840
:103200006160A060A06A401CA062FFF78FFC206B89
:10321000DFF87080864209D36068006880B160681A
:10322000C068C568686886420DD220632068C06A9D
:1032300000EB800158F821000128CAD90127C8E70E
:103240004FF0FF30F1E7281DFFF716FDA86A18B10F
:1032500005F11800FFF710FDE86A0121A26981401D
:103260001143A16100EB800108EB8100291DFFF7EC
:1032700047FDE86A2168C96A8842CDD30127CBE7B8
:1032800018000020580400202DE9F0472C4D0024A0
:103290002746A86B38B1FFF73FFDA86B401EA86317
:1032A000A86B40B146E0502080F31188BFF34F8FE8
:1032B000BFF36F8FFEE72969224E0120D1B3A6F13B
:1032C000B40980463068E8B1F068C46804F11800B9
:1032D000FFF7D2FC201DFFF7CFFCE06AAA6908FACD
:1032E00000F11143A96100EB800109EB8100211D70
:1032F000FFF706FDE06A2968C96A8842E2D3C5F88B
:103300002480DFE70CB1FFF711FC2C6A44B146467C
:10331000FFF756FF00B16E62641EF9D100202862EB
:10332000686A38B10849012738070860BFF34F8F32
:10333000BFF36F8FFFF710FD3846BDE8F087000040
:10334000180000200C05002004ED00E08833000880
:103350005F23000800000000000000008000000063
:103360000000000000000000000610160006101605
:103370000000000000000000010203040607080925
:10338000000000000102030464656661756C7454FA
:1033900061736B00B4330008000000207C00000063
:1033A0007E270008303400087C00002034450000EF
:1033B0008E2700080000000000000000010000004F
:1033C00010000000000000000024F40000000000D5
:1033D00000000000000000000000000000000000ED
:1033E00000000000000000000000000000000000DD
:1033F00000000000000000000000000000000000CD
:1034000000000000000000000000000000000000BC
:1034100000000000000000000000000000000000AC
:1034200000000000AAAAAAAA0000000000000000F4
:04000005080001AD41
:00000001FF
